{
  "contractName": "RandomBet",
  "abi": [
    {
      "constant": true,
      "inputs": [],
      "name": "rand",
      "outputs": [
        {
          "internalType": "uint256",
          "name": "",
          "type": "uint256"
        }
      ],
      "payable": false,
      "stateMutability": "view",
      "type": "function"
    }
  ],
  "bytecode": "0x608060405234801561001057600080fd5b50610194806100206000396000f3fe608060405234801561001057600080fd5b506004361061002b5760003560e01c80633b3dca7614610030575b600080fd5b61003861004e565b6040518082815260200191505060405180910390f35b600080434233604051602001808273ffffffffffffffffffffffffffffffffffffffff1673ffffffffffffffffffffffffffffffffffffffff1660601b81526014019150506040516020818303038152906040528051906020012060001c816100b357fe5b04454241604051602001808273ffffffffffffffffffffffffffffffffffffffff1673ffffffffffffffffffffffffffffffffffffffff1660601b81526014019150506040516020818303038152906040528051906020012060001c8161011657fe5b0444420101010101604051602001808281526020019150506040516020818303038152906040528051906020012060001c90506103e880828161015557fe5b040281039150509056fea265627a7a72315820bd67937208941b44d3ef13e9bd1b1cb351e03d15e1d276a303bc115c093ae30c64736f6c63430005100032",
  "source": "pragma solidity >=0.4.21 <0.7.0;\n\ncontract RandomBet {\n    function rand()\n    public\n    view\n    returns(uint256)\n{\n    uint256 seed = uint256(keccak256(abi.encodePacked(\n        block.timestamp + block.difficulty +\n        ((uint256(keccak256(abi.encodePacked(block.coinbase)))) / (now)) +\n        block.gaslimit + \n        ((uint256(keccak256(abi.encodePacked(msg.sender)))) / (now)) +\n        block.number\n    )));\n\n    return (seed - ((seed / 1000) * 1000));\n }\n}",
  "sourcePath": "/Users/yannisbouacida/Desktop/DAO/contracts/RandomBet.sol",
  "compiler": {
    "name": "solc",
    "version": "0.5.16+commit.9c3226ce.Emscripten.clang"
  },
  "schemaVersion": "3.0.23",
  "updatedAt": "2020-02-07T18:50:21.674Z",
  "devdoc": {
    "methods": {}
  },
  "userdoc": {
    "methods": {}
  }
}