{
  "contractName": "RandomBet",
  "abi": [
    {
      "constant": false,
      "inputs": [],
      "name": "rand",
      "outputs": [
        {
          "internalType": "uint256",
          "name": "",
          "type": "uint256"
        }
      ],
      "payable": false,
      "stateMutability": "nonpayable",
      "type": "function"
    },
    {
      "constant": true,
      "inputs": [],
      "name": "get",
      "outputs": [
        {
          "internalType": "uint256",
          "name": "",
          "type": "uint256"
        }
      ],
      "payable": false,
      "stateMutability": "view",
      "type": "function"
    }
  ],
  "bytecode": "0x608060405234801561001057600080fd5b506101cb806100206000396000f3fe608060405234801561001057600080fd5b50600436106100365760003560e01c80633b3dca761461003b5780636d4ce63c14610059575b600080fd5b610043610077565b6040518082815260200191505060405180910390f35b61006161018d565b6040518082815260200191505060405180910390f35b600080434233604051602001808273ffffffffffffffffffffffffffffffffffffffff1673ffffffffffffffffffffffffffffffffffffffff1660601b81526014019150506040516020818303038152906040528051906020012060001c816100dc57fe5b04454241604051602001808273ffffffffffffffffffffffffffffffffffffffff1673ffffffffffffffffffffffffffffffffffffffff1660601b81526014019150506040516020818303038152906040528051906020012060001c8161013f57fe5b0444420101010101604051602001808281526020019150506040516020818303038152906040528051906020012060001c90506103e880828161017e57fe5b04028103600081905591505090565b6000805490509056fea265627a7a7231582038bbbd3d7148134de3e56d2456cb745c9b5cced9b8da5709467ad2a7230ba65f64736f6c63430005100032",
  "source": "pragma solidity >=0.4.21 <0.7.0;\n\ncontract RandomBet {\n    uint number;\n    function rand()\n    public\n    returns(uint256)\n{\n    uint256 seed = uint256(keccak256(abi.encodePacked(\n        block.timestamp + block.difficulty +\n        ((uint256(keccak256(abi.encodePacked(block.coinbase)))) / (now)) +\n        block.gaslimit + \n        ((uint256(keccak256(abi.encodePacked(msg.sender)))) / (now)) +\n        block.number\n    )));\n    return number = (seed - ((seed / 1000) * 1000));\n }\n\n   function get() public view returns (uint) {\n        return number;\n    }\n}",
  "sourcePath": "/Users/yannisbouacida/Desktop/DAO/contracts/RandomBet.sol",
  "compiler": {
    "name": "solc",
    "version": "0.5.16+commit.9c3226ce.Emscripten.clang"
  },
  "schemaVersion": "3.0.23",
  "updatedAt": "2020-02-08T19:12:10.492Z",
  "devdoc": {
    "methods": {}
  },
  "userdoc": {
    "methods": {}
  }
}